:020000040800F2
:10000000C8090020DD0200085D320008BB2E000890
:1000100011320008851A0008353A00080000000077
:10002000000000000000000000000000673400082D
:10003000871A0008000000006534000869340008D1
:10004000F7020008F7020008F7020008F7020008AC
:10005000F7020008F7020008F7020008F70200089C
:10006000F7020008F7020008F7020008F70200088C
:10007000F7020008F7020008F7020008F70200087C
:10008000F7020008F7020008F7020008F70200086C
:10009000F7020008F7020008F7020008F70200085C
:1000A000F7020008F7020008F7020008F70200084C
:1000B000F7020008F7020008F7020008F70200083C
:1000C000F7020008F7020008F7020008F70200082C
:1000D000F7020008193A0008F7020008F7020008C2
:1000E000891A0008F7020008F7020008F702000862
:1000F000F7020008F7020008F7020008F7020008FC
:10010000F7020008F7020008F7020008F7020008EB
:10011000F7020008F7020008F7020008F7020008DB
:10012000F7020008F7020008F7020008F7020008CB
:10013000F7020008F7020008F7020008F7020008BB
:10014000F7020008F7020008F7020008F7020008AB
:10015000F7020008F7020008F7020008F70200089B
:10016000F7020008F7020008F7020008F70200088B
:10017000F7020008F7020008F7020008F70200087B
:10018000F7020008F7020008F7020008F70200086B
:10019000F702000800000000F7020008F70200085C
:1001A000F7020008F7020008F7020008F70200084B
:1001B000F7020008F7020008F7020008F70200083B
:1001C000F7020008F7020008F7020008F70200082B
:1001D000F7020008F702000800F002F800F06FF8DC
:1001E0000AA090E8000C82448344AAF10107DA4592
:1001F00001D100F064F8AFF2090EBAE80F0013F075
:10020000010F18BFFB1A43F001031847F044000028
:10021000104500000A444FF0000C10F8013B13F0A9
:10022000070408BF10F8014B1D1108BF10F8015B4F
:10023000641E05D010F8016B641E01F8016BF9D142
:1002400013F0080F1EBF10F8014BAD1C0C1B09D199
:100250006D1E58BF01F801CBFAD505E014F8016B0B
:1002600001F8016B6D1EF9D59142D6D3704700009D
:100270000023002400250026103A28BF78C1FBD8AF
:10028000520728BF30C148BF0B607047662903F092
:100290009985642900F0EA80782900F02381002004
:1002A00070471FB503F089FD00F0B2FC0400002088
:1002B000002103F0F5FCE0601FBD10B510BD00F09B
:1002C000A7FD1146FFF7EDFF03F024FC00F0C5FD8C
:1002D00003B4FFF7F2FF03BC00F006FE09488047B5
:1002E00009480047FEE7FEE7FEE7FEE7FEE7FEE718
:1002F000FEE7FEE7FEE7FEE704480549054A064B30
:1003000070470000D5340008D9010008C803002058
:10031000C8090020C8050020C805002053EA020CC7
:1003200000F069802DE9F04B4FF00006002B1FBF55
:10033000B3FA83F503FA05F424FA05F65E4012BF1A
:100340001643B2FA82F502FA05F4C5F120051EBF84
:1003500022FA05FC44EA0C04203556EA044C4FEA24
:10036000144418BF641C4FF000084FF0000990427D
:1003700071EB030C39D3002919BFB1FA81F701FAE7
:1003800007F6B0FA80F700FA07F6C7F120071EBF9C
:1003900020FA07FC46EA0C062037B6FBF4FCA7EB74
:1003A0000507103F07F01F0BCBF120060CFA0BFBE3
:1003B0002CFA06F644BFB3460026202FA4BF5E46A3
:1003C0004FF0000B5BEA060C08BF4FF0010B19EB76
:1003D0000B09ABFB027C48EB0608C01B06FB02CCFA
:1003E0000BFB03CC71EB0C01C1E70B460246414607
:1003F0004846BDE8F08B13B54FF000004FF0000108
:10040000AFF30080BDE81C40704710B54C1084EA83
:10041000530404D54042C1F1000138BF491E1B42BC
:1004200004D55242C3F1000338BF5B1EFFF776FFCD
:1004300014F0804F04D04042C1F1000138BF491E82
:1004400014F0004F04D05242C3F1000338BF5B1ECA
:1004500010BD00000FB4044910B503AA029800F0C3
:10046000C5FB10BC5DF814FB440200202DE9F041EF
:100470000646002410687529314616A510D0AFF342
:100480000080002802DA404213A507E031688A079D
:1004900001D512A502E0490704D511A5012401E008
:1004A000AFF3008000210A2206F1240709E0B0FB27
:1004B000F2FCB0FBF2F302FB1C003030785418461B
:1004C000491C0028F3D123462A463046BDE8F041B6
:1004D00000F00EB9000000002D0000002B0000000D
:1004E0002000000070B504460D4621461068AFF3A9
:1004F00000802188090502D50F4A7A4402E00E4A9D
:100500007A440E32002104F1240305E000F00F06C6
:100510000009965D5E54491C0028F7D1207800231D
:10052000000704D5702D02D009B1022311322046F4
:10053000BDE8704000F0DCB8404100002DE9F04714
:100540004FF0000A89460446C0F820A02046E16822
:100550008847002876D0252806D0D4E90121904785
:10056000206A401C2062F1E7E168204600268847A7
:10057000C4F81CA005460027C4F818A02A2D09D0ED
:10058000284603F088FA38B304EB8708303DC8F8F2
:10059000185019E059F8041B204604EB87029161BA
:1005A000E1688847012F054618D1E069002820DA64
:1005B00026F020061DE0D8F8180000EB800005EBBF
:1005C00040003038C8F818002046E16888470546E2
:1005D00003F061FA0028EED1012F0AD02E2D08D1A8
:1005E0002046E16888477F1C0546022F46F020061A
:1005F000C4DBA069002803DA404246F00106A0618E
:10060000F00701D026F010066C2D0AD0682D08D016
:100610004C2D39D06A2D35D0742D35D07A2D33D06C
:1006200016E0E1682F4620468847B84205460AD1C1
:100630006C2F27D04FF48060E1680643204688473E
:10064000054605E027E06C2F1AD04FF48070064372
:100650000DB3A5F14100192802D8203546F40066F3
:100660004A462946204626604E46FFF70FFE80B1D7
:1006700001280BD0F61D26F0070000F1080965E7F8
:100680004020E4E78020D7E70020D5E706F1040901
:100690005CE7284661E7206ABDE8F0874FF000027A
:1006A00000B5134694469646203922BFA0E80C5068
:1006B000A0E80C50B1F12001BFF4F7AF090728BF43
:1006C000A0E80C5048BF0CC05DF804EB890028BFBF
:1006D00040F8042B08BF704748BF20F8022B11F0E8
:1006E000804F18BF00F8012B704770477047704764
:1006F0002DE9F0470D4699469246044600F124083C
:100700000168880604D5E06921F01001216000E04D
:100710000120A84201DD471B00E00027A1697A19EA
:1007200002EB0900081AA0612078C00602D4204616
:10073000AFF30080002608E0D4E901211AF8060092
:100740009047206A401C761C20624E45F4DB2078DE
:10075000C0060AD52046AFF3008006E0D4E90121A7
:1007600030209047206A401C2062381EA7F1010704
:10077000F4DC07E0D4E9012118F805009047206A6D
:10078000401C2062281EA5F10105F3DC2046AFF3D2
:1007900000802078000602D50220BDE8F087012005
:1007A000FBE770472DE9FF4F0C461E464FF0FF3721
:1007B0008BB0D2E90001DDF860800A908A46C1F36F
:1007C0000A5505B93D46002108464FF00000BAF130
:1007D000000F00F4400005DA00EB80004FF4400108
:1007E00001EA50004FEA9059B9F1010F00DDB94616
:1007F0000A9850EA4A000ED044F61050A5F2FF3590
:1008000045432F14B8F1000F1ED07542291E1EDD7E
:10081000C9F100021CE0B8F1010F4FF0000001D057
:10082000302103E0F24305E02154401CB042FBDBE1
:1008300030460022002121540B99C1F80880C1E9FB
:1008400000200FB0BDE8F08FBD1B6D1CDEE74A46EF
:1008500000DA694206A800F065FA06AB93E80700E3
:1008600003AB83E8070050460A9900F044FB8DE88B
:100870000700A0F500501F3800900398002D09DDF7
:1008800042F21F014A46084403A90390684600F05B
:10089000A3FD08E0A0F500504A461F3803A90390C5
:1008A000684600F0ADFD8DE807000004000C03D0A1
:1008B0004FF0FF30410800E01046B8F1000F03D0C0
:1008C0000022009215461EE0751E05D400F0A4F922
:1008D000303262556D1EF9D5B3460122084302D06D
:1008E00000227F1C04E02078302801D100227F1EE6
:1008F000002A099786D01DE0112D07DA00F08CF947
:10090000303262556D1C50EA0102F5D1084302D025
:100910000098C8B10EE00021681E05E0235C625C0F
:1009200063542254401E491C8142F7DBAB46A81B8E
:10093000401E0990002004F80B000B98099AC0F89B
:100940000880C0E9002B7CE711264FF0000859E72A
:100950002DE9F04F88460446D21D22F0070191B0E0
:10096000D1E90001CDE90A0103F06DF802460B98C8
:10097000C00F01D02D2007E02068810701D52B2072
:1009800002E0202101EAC000032A099001D0072AD1
:1009900005DB03464146204600F084F90BE1207850
:1009A000800601D5E06900E00620B8F1650F8146B8
:1009B00006D0B8F1660F18D0B8F1670F70D131E0EA
:1009C0000020B9F1110F009001DB112301E009F1C2
:1009D00001030AAA01A90CA8FFF7E4FEDDE90C70E7
:1009E000002609F10105834647E001204B460090AF
:1009F0004FF000470AAA01A90CA8FFF7D3FEDDE9D2
:100A00000DB00C995D46002610B909F101000D18D2
:100A1000B9EB050003D4C0F1FF3609F10105A5EBE0
:100A200009002BE0B9F1010F01DA4FF001090020B4
:100A3000B9F1110F0090484601DD112300E0034693
:100A40000AAA01A90CA8FFF7ADFEDDE90C704D461E
:100A500000268346207800070AD4AB4500DA5D46BD
:100A600001A8012D04DD411911F8011C302907D01E
:100A70004F4502DA17F1040F04DA012082460FE035
:100A80006D1EEEE7002F02DCED1B3E4403E0781CF8
:100A9000A84200DD7D1CB81B00F1010A4FF00047A1
:100AA0002078000703D4AA4501DB4FF0FF3A00216C
:100AB000B7F1004F0DF143088DF8431024D0022008
:100AC0002B23002F01DA7F422D230A21021EA0F1E1
:100AD000010000DC5FB197FBF1FC97FBF1F201FB39
:100AE0001C7C17460CF1300C08F801CDEEE7A8F19C
:100AF000010003702188090501D5452100E0652129
:100B0000A0F1010800F8011C09980FA9A1EB080742
:100B1000FF1D00B10120411901EBEA70A1693844C1
:100B2000081A401EA0612078C00602D42046AFF308
:100B30000080099828B1D4E901219047206A401C1F
:100B400020622078C00622D52046AFF300801EE048
:100B5000002E04DBB34502DD01A8805D00E03020FB
:100B6000D4E901219047206A401C2062761CAAF13A
:100B700001005FEA000A0AD100F04AF8C068016883
:100B8000405CD4E901219047206A401C2062281E65
:100B9000A5F10105DCDC07E0D4E9012118F8010B1F
:100BA0009047206A401C2062381EA7F10107F3DC41
:100BB0002046AFF30080032011B043E601694A1CD0
:100BC00002610878704700B58FB0CDE9013100218E
:100BD000059105497944CDE9031011466846FFF7B0
:100BE000ADFC0FB000BD0000E5FFFFFF074B70B587
:100BF0000D467B44FFF7E7FF0446284600F000F966
:100C000010B14FF0FF3070BD204670BD032F0000C3
:100C1000004870478403002030B5B0F10A024FEA63
:100C2000900E71F100034EEA817EB0EB0E0061EB95
:100C300091014FEA101E4EEA017E10EB0E0041EBCF
:100C400011114FEA102E4EEA016E10EB0E0041EB2F
:100C500011214FEA104E4EEA014E10EB0E0041EB0F
:100C60001141401841F100014FEAD00040EA4170C3
:100C70004FEAD10110EB80054FEA810444EA9074F9
:100C800044EB01046D1944EB0404521BA3414FF0E3
:100C9000000348BF0A3200D530BD401C41F10001BD
:100CA00030BD00002DE9F0411F46044603260168CF
:100CB000072A01F4006004DB08B116A505E016A5BB
:100CC00003E008B115A500E015A521F01000206093
:100CD000A069C01EA0610FB1401EA0612046AFF305
:100CE00000804FB1D4E9012138469047206A401C6A
:100CF0002062C01C206206E0206AFAE7D4E90121E4
:100D000015F8010B9047761EF8D22046AFF300800D
:100D1000BDE8F0814E414E006E616E00494E4600C6
:100D2000696E66002DE9F047814616468AB0334861
:100D300078440DC88DE80D0030487844801C03AC21
:100D40000DC884E80D0041F69B300844372190FB24
:100D5000F1F290FBF1F5A5F1800501FB12041B3CBB
:100D600002D56442012000E00020DFF890A0804618
:100D70000027FA44AAF1BE0A0DE0E00709D0324686
:100D8000684607EB47010AEB810100F039FB8DE86B
:100D9000070064107F1C002CEFD1184F7F44AC3F3C
:100DA00018E0E80714D007EB04100DF1180A90E8DA
:100DB0000E008AE80E00C068F04201D19819089030
:100DC000324606A903A800F01BFB03AB83E807002B
:100DD0006D10641C002DE4D132466946B8F1000F55
:100DE00003A802D000F0F8FA01E000F009FBC9E91D
:100DF0000001C9F808200AB0BDE8F087B03900004A
:100E0000007B00F0800070470048704764030020BA
:100E10007546FFF7F9FFAE4605006946534620F0D8
:100E20000700854618B020B5FFF766FABDE82040F8
:100E30004FF000064FF000074FF000084FF0000B96
:100E400021F00701AC46ACE8C009ACE8C009ACE849
:100E5000C009ACE8C0098D4670470446AFF3008076
:100E60002046FFF735FA00004FF0013C50F8042B04
:100E700051F8043B9A4221D1A2EB0C03934313EAAD
:100E8000CC1317D150F8042B51F8043B9A4215D1DA
:100E9000A2EB0C03934313EACC130BD150F8042BB1
:100EA00051F8043B9A4209D1A2EB0C03934313EA95
:100EB000CC13DBD04FF00000704700BFD01A01BA4E
:100EC000B1FA81F101F0180122FA01F0CB40C1F131
:100ED0002001DBB2C0B2C01A2CFA01F3D11A91433F
:100EE00011EAC311E6D1704701491820ABBEFEE7F5
:100EF0002600020070475FEA400C08BF91F0000F27
:100F00004FEA8C234FEAC12243EA51514FEA1C5069
:100F100018BF00F5F0404FEA300018BF41F0004123
:100F20005FEA6C5C00F02980BCF1FF3F08BF40F035
:100F300080407047130C06BF12044FF0100C4FF0A6
:100F4000000C130E04BF12020CF1080C130F04BFA7
:100F500012010CF1040C930F04BF92000CF1020C6F
:100F6000D30F04BF52000CF1010C11464FF00002E8
:100F7000A0F11F00A0EB0C00704711F0004F08BF5C
:100F8000704731F000413FF4D5AF0B0C06BF0904A8
:100F90004FF0100C4FF0000C0B0E04BF09020CF1C7
:100FA000080C0B0F04BF09010CF1040C8B0F04BFDC
:100FB00089000CF1020CCB0F04BF49000CF1010CAD
:100FC000CCF12003A0EB0C0022FA03F302FA0CF29E
:100FD00041EA030100F10100704720F07F4C80EAF4
:100FE000030023F07F47ACEB070303F57C5300F0CD
:100FF000004003F1FF032DE980494FEA154B09B486
:101000004FEA144325EA0B4E24EA03480FF2042664
:1010100006EB132749083E785FEA320203FB0667B6
:10102000C7F5000707FB06F64FEA54374FEAD646E6
:1010300006F1020607FB066CCCF1005C4FEA1C4788
:101040002CEA074C07FB06F40CFB06F504EB1546EF
:101050004FEA961634BF00204FF000404FEAD137D8
:1010600006FB07FC4FEA1C4C0CFB0BF7D21B03FBE7
:101070000CF761EB07010CFB0EF7B0EB074072EBCE
:1010800017420CFB08F734BFA2EB0742B2EB074252
:1010900061EB17414FEA0C444FEA910706FB07FC4E
:1010A0004FEA1C4C0CFB0BF7B0EBC74072EB57320E
:1010B00003FB0CF734BFA2EBC742B2EBC74261EBB4
:1010C00057310CFB0EF7B0EBC70072EB57720CFBFD
:1010D00008F734BFA2EBC702B2EBC70261EB57714E
:1010E000039F4FEA816141EA921104EBCC044FEA7D
:1010F000D1374FEA826206FB07FC42EA90124FEAC0
:1011000080604FEA1C4C0CFB0BF7D21B03FB0CF767
:1011100061EB07010CFB0EF7B0EB074072EB1742D7
:101120000CFB08F734BFA2EB0742B2EB074261EBBE
:1011300017414FEA8C554FEA910704EB9C2406FBBC
:1011400007FC4FEA1C4C0CFB0BF7B0EBC74072EBF3
:10115000573203FB0CF734BFA2EBC742B2EBC742D6
:1011600061EB57310CFB0EF7B0EBC70072EB577217
:101170000CFB08F734BFA2EBC702B2EBC70261EB6E
:10118000577115EB4C254FEA816141EA92114FEA04
:1011900082624FEAD13742EA901206FB07FC44F123
:1011A00000044FEA80604FEA1C4C0CFB0BF7D21B8B
:1011B00003FB0CF761EB07010CFB0EF7B0EB0740EC
:1011C00072EB17420CFB08F734BFA2EB0742B2EBFD
:1011D000074261EB174115EB1C154FEA813141EADB
:1011E00092414FEA823242EA90424FEA80304FEA1F
:1011F0000C7644F1000448EA03434EEA0B484FF0F2
:10120000000EB2EB080C71EB030724BF62463946AF
:101210004EEB0E0E4FF0000B0018524149414BEBC4
:101220000B0BB2EB080C71EB03077BF1000B24BF37
:10123000624639464EEB0E0E4FF0000B001852413D
:1012400049414BEB0B0BB2EB080C71EB03077BF145
:10125000000B24BF624639464EEB0E0E51EA0207E0
:1012600018BF46F0010616EB0E7655F1000254F158
:10127000000103D5BDE88901BDE80088BDE889010A
:10128000BDE80048B619524141EB0101A3F1010349
:10129000704780807F7E7D7C7B7A797877767675E3
:1012A0007473727171706F6E6E6D6C6C6B6A6A695B
:1012B0006868676666656464636362616160605FF5
:1012C0005F5E5E5D5D5C5C5B5B5A5A59595858576E
:1012D00057565655555554545353525252515150D6
:1012E00050504F4F4F4E4E4D4D4D4C4C4C4B4B4B29
:1012F0004A4A4A494949484848474747474646466F
:1013000045454544444444434343434242424241A9
:101310004141002B26D4770021D01CB54FEA370776
:1013200003B44FF010004FF010014FF000000FBC5D
:10133000BDE810400BF1010BBBF1010F08BF5FEAE4
:10134000170722BF12F1010211F101014FF0004114
:1013500043F1000300F0004043EA00007047F9D376
:101360005708DAE746EA064613F1400F4FEA1646F9
:101370001FDD13F1200FDFBF16430A460021203383
:101380005B42C8D0C3F1200746EA064602FA07F7D7
:101390004FEA164646EA0706C3F1200722FA03F28F
:1013A00001FA07F721FA03F14FF0000342EA0702BE
:1013B000B1E746EA020646EA06464FEA164646EA1C
:1013C0000106BCBF46EA0646360C4FF000034FF05C
:1013D00000024FF000019EE72DE9C048934630B46B
:1013E00091E8380007C831EA400C48BF34EA430CA2
:1013F00003D5FFF7F2FDFFF78CFFF0BCBDE80088D6
:101400002DE9C048934630B491E8380007C810F081
:10141000804F08BF13F0804F03D100F005F8FFF7AD
:1014200078FFF0BCBDE8008820F07F4780EA030029
:1014300023F07F4C07EB0C03A3F57C5300F0004036
:10144000A3F1FE0392F0000F00F0B38095F0000FBF
:1014500000F077802DE901494FEA11404FEA144628
:1014600021EA004800FB06FC24EA064708FB06F6D2
:1014700007FB08F800FB07F718EB06484CEB164C87
:101480004FEA124B18EB07484FEA15464CEB174052
:1014900022EA0B4E0BFB06FC25EA06470EFB06F67E
:1014A00007FB0EFE0BFB07F71EEB064E4CEB164C34
:1014B0004FF000061EEB074E4CEB174B18EB0B08DA
:1014C00040F1000018EB0E0B58EB000840F1000053
:1014D0008F1A4FF000013CBFC943661B14BFB5EB28
:1014E000040C00213CBFC943F61B4FEA17444EEAE7
:1014F0008E0E27EA04454FEA1C4704FB07622CEADC
:10150000074C05FB07F70CFB05F604FB0CFC16EB80
:10151000074642EB174216EB0C4642EB1C421BEB14
:10152000060658EB0202414146EA9E0601D5BDE897
:101530000189B619524141EB0101A3F10103BDE854
:1015400001894FEA14454FEA114724EA054621EA8A
:10155000074C05FB07F406FB07F70CFB06F105FB40
:101560000CFC11EB074144EB17444FEA124711EB17
:101570000C4144EB1C4422EA074C05FB07F206FB36
:1015800007F70CFB06F605FB0CFC16EB074642EBD7
:10159000174216EB0C4642EB1C456A1854F1000149
:1015A00048BF7047B619524141EB0101A3F1010355
:1015B000704795F0000F37D04FEA11424FEA1447B9
:1015C00021EA024624EA074C02FB07F106FB07F773
:1015D0000CFB06F402FB0CFC14EB074441EB174137
:1015E0004FEA154714EB0C4441EB1C4125EA074C2C
:1015F00002FB07F506FB07F70CFB06F602FB0CFCEB
:1016000016EB074645EB174516EB0C4645EB1C421F
:10161000121951F1000148BF7047B619524141EB10
:101620000101A3F1010370474FEA14454FEA114746
:1016300024EA054621EA074C05FB07F106FB07F7FC
:101640000CFB06F24FF0000605FB0CFC12EB074208
:1016500041EB174112EB0C4251EB1C4148BF704764
:10166000921841EB0101A3F1010370472DE9F0410C
:10167000054617480C4605704170282000F01AFCFA
:10168000052002F01FFA00F0CDF96806050E11489A
:10169000114F0826045D30044FF0060838605020D2
:1016A00000F05EF9032000F05BF9404600F058F9C5
:1016B000304600F055F9284600F052F9204600F077
:1016C0004FF93E60BDE8F041322002F0FBB9000066
:1016D0003C0300202E460008180400480A2002F0AF
:1016E000F1B90020401C80B20F28FBD370470000E6
:1016F000072801D900207047012181F3108804498F
:1017000001EB80000021406881F3108870470000E1
:101710003C0300202DE9F0411F4C94F824000728D9
:1017200010D8082545EA00101C4FC6B228043860BE
:10173000512000F015F9002000F012F9304600F0B9
:101740000FF93D60052002F0BDF9FC2000F08EF994
:10175000052002F0B7F9002000F088F9192002F006
:10176000B1F994F8240090B100F0B6F894F8241080
:1017700044F8210094F82400401CC0B284F82400EE
:10178000082802D3002084F82400BDE8F08100F08E
:10179000A3F82062EEE700003C0300201804004894
:1017A0002DE9F04F3E4887B02021016010240460ED
:1017B00008250560490501604FF090464FF4807898
:1017C000C6F818803749C86C40F00200C864C86C7D
:1017D00000F002000590C86C40F00100C864C86CBD
:1017E00000F001000590C86C40F00200C864C86CAD
:1017F00000F002000590C86C40F00100C864C86C9D
:1018000000F001000590C86C40F00100C864C86C8D
:1018100000F001000590C86C40F00200C864C86C7C
:1018200000F002000590C86C40F00200C864C86C6B
:101830004FF4806A00F00200059001AA0120002701
:101840004FF00209CDF800A0DFF854B082E8810221
:10185000ABF1180B6946584600F0A6F969463046C8
:10186000CDF8008000F0A0F969465846009500F0D8
:101870009BF969465846009400F096F9CDE900A717
:10188000CDE902796946304600F08EF9600100909A
:101890006946304600F088F907B0BDE8F08F0000D7
:1018A000180400480010024010B500F0BBF8094CC5
:1018B0004FF400202060102000F052F8002000F0CB
:1018C0004FF8FFF70BFF00F025F808212160000911
:1018D00010BD00001804004870B50D4C4FF40020F6
:1018E0002060012000F03CF8FFF7F8FE00F012F84D
:1018F000050400F00FF805EB002500F00BF80821B7
:1019000028442160010201D5A0F1807070BD000063
:10191000180400482DE9F0470024FFF7E2FE0F4EBF
:1019200000254FF480674FF080684FF09049376092
:10193000FFF7D7FE6006040EC6F80080D9F8100045
:10194000800501D5641CE4B2FFF7CBFE6D1CEDB23F
:10195000082DECD32046BDE8F087000018040048AD
:101960002DE9F05F0546FFF7BCFEFFF7BAFE114E0A
:1019700000244FF4807A4FF090474FF0807B4FF473
:1019800080684FF08069280601D5504600E058462F
:10199000B861C6F80080FFF7A4FE6806050EC6F819
:1019A0000090FFF79EFE641CE4B2082CEBD3BDE868
:1019B000F09F00001804004830B50546174887B06E
:1019C000C16C41F00101C164C06C002400F0010051
:1019D00005904FF40410CDE901044FF480600090AD
:1019E00069464FF0904000F0DFF8002202212820E5
:1019F00000F07EFA282000F06EFA09495FF000003E
:101A000081F8255081F8244001EB8002401CC0B2CF
:101A100054600828F8D307B030BD00000010024021
:101A20003C030020074900204FF0904213695B05FA
:101A300002D5401C8842F9D3884202D302A0FEF7A7
:101A400009BD7047005A6202414453313235365F56
:101A5000576169744452445928292054696D65209E
:101A60004F7574202E2E2E0D0A00000010B5044C68
:101A70004FF400212160FFF773FF0820206010BDA4
:101A800018040048FEE7704710B54FF4806000F07E
:101A90007FF8BDE810404FF4005000F079B872B6FE
:101AA000FEE710B590F8253000210122022B03D06B
:101AB0000421C163012122E003681C6824F00E04A4
:101AC0001C60836C1C6824F480741C6003681C68B0
:101AD00024F001041C6090F84430046C03F01F03F0
:101AE00002FA03F36360D0E913345C60436D33B1F1
:101AF0001C6824F480741C60D0E916345C6080F8A3
:101B00002520002280F82420084610BD70B590F8EA
:101B10002520002401212346022A07D00422C26383
:101B200080F8251080F82430012429E00268156827
:101B300025F00E0515600268156825F00105156091
:101B4000826C156825F48075156090F84420056C4A
:101B500002F01F0201FA02F26A60D0E91325556013
:101B6000426D32B1156825F480751560D0E91625EF
:101B7000556080F8251080F82430816B01B18847CA
:101B8000204670BDB0F5806F01D1FFF7C3BD70472F
:101B9000044910B50A68024202D00860FFF7F2FF5C
:101BA00010BD0000140401402DE9F04FDFF8209231
:101BB000002301260324A9F1040B85B00F2709F1A6
:101BC000040AABF1040EFAE006FA03F52A407CD0D1
:101BD00091F804C00CF0030CBCF1010F02D0BCF171
:101BE000020F26D1D0F808C0CDF800C04FEA430C50
:101BF00004FA0CF8CDF810C0DDF800C02CEA080C8F
:101C0000CDF800C0D1F80C80DDF810C008FA0CF84F
:101C1000DDF800C048EA0C08C0F80880D0F804C01D
:101C20002CEA050C0D79C5F300159D4045EA0C051D
:101C300045600D79ED43AD070ED0C5684FEA430806
:101C400004FA08FC25EA0C05D1F808C00CFA08FCD7
:101C50004CEA050CC0F80CC00D7905F00305022D07
:101C600016D1DD0800EB850CCDF808C0DCF820802B
:101C70005D074FEAD56C07FA0CF528EA05080D69EF
:101C800005FA0CF5DDF808C045EA0805CCF8205047
:101C900005684FEA430CCDF808C004FA0CFC25EAAD
:101CA0000C0591F804C00CF00308DDF808C008FA30
:101CB0000CF848EA0508C0F800804D6815F4403F6C
:101CC0007CD0444DD5F860C000E077E04CF0010CCA
:101CD000C5F860C02D6E23F0030C05F001050095DA
:101CE0003D4D65440295AD684FEA837C4FEA1C7810
:101CF00007FA08FC25EA0C05B0F1904F06D0DFF892
:101D0000DCC0604505D14FF0010C20E04FF0000C25
:101D10001DE0DFF8CCC0604502D14FF0020C16E0A8
:101D2000DFF8C0C0604502D14FF0030C0FE0DFF8D0
:101D3000B8C0604502D14FF0040C08E0DFF8ACC039
:101D4000604502D14FF0050C01E04FF0060C0CFA93
:101D500008FC4CEA050C029DC5F808C0D9F80050F3
:101D6000CC46D1F8048095435FEAC82800D51543D6
:101D7000CCF80050DAF80050D446D1F804809543EE
:101D80005FEA882800D51543CCF80050DBF80050F6
:101D9000DC46D1F8048095435FEA883800D51543C6
:101DA000CCF80050DEF80050F446D1F8048095439A
:101DB0005FEAC83800D51543CCF800505B1C0A68B0
:101DC00032FA03F57FF400AF05B0BDE8F08F0000F4
:101DD00008040140001002400000014000040048D7
:101DE00000080048000C004800100048001400489B
:101DF0000069084000D0012070470AB18161704736
:101E00008162704701488068704700000000002030
:101E100002488168426811448160704700000020D8
:101E200010B50024032000F083F8002000F008F82B
:101E300008B1012401E000F025F8204610BD0000A3
:101E400070B50E4E05460024706898B14FF47A7153
:101E5000B1FBF0F00A490968B1FBF0F000F0BCFDFD
:101E600040B9102D06D200222946501E00F040F83D
:101E7000356000E00124204670BD00000000002015
:101E80000C0000200A4882B0016E41F00101016699
:101E9000016E01F001010091816D41F08051816579
:101EA000806D00F08050009002B000F0B1B80000EA
:101EB0000010024000280DDB00F01F0201219140BC
:101EC0004009800000F1E020C0F88011BFF34F8F7F
:101ED000BFF36F8F7047002809DB00F01F0201215C
:101EE00091404009800000F1E020C0F800117047E7
:101EF000F0B40E4B1B680C46C3F30223C3F1070575
:101F0000042D00D90425191D072901D2002300E062
:101F1000DB1E012606FA05F1491E214099409E402C
:101F2000761E16403143F0BC01F0A5BD0CED00E07B
:101F3000064900F0070208684FF6FF03184040EA20
:101F40000220034A10430860704700000CED00E0D7
:101F50000000FA052B492C4B0A6832214A432B49D1
:101F600040B1B0F5007F086829D020F4C06040F48B
:101F700080602CE00868C0F34120022804D051F8AA
:101F8000800F20F4807022E0D1F8800020F480706F
:101F9000C1F88000086820F4C06040F40070086058
:101FA000B2FBF3F0401C00E0401E4A69520501D527
:101FB0000028F9D1486940050AD503207047C0F3CD
:101FC0004120022806D051F8800F40F4807008604C
:101FD00000207047D1F8800040F48070C1F8800084
:101FE000086820F4C06040F400700860B2FBF3F0B1
:101FF000401C00E0401E4A695205DBD50028F9D19B
:10200000D8E700000C00002040420F0000700040A4
:102010000248816841F4804181607047007000404F
:102020002DE9F843044600680026BB4D00035ED549
:10203000A86D0027C00008D4A86D40F08050A865A6
:10204000A86D012700F080500090DFF8D092D9F8F9
:10205000001041F48071C9F80010FFF7D3FE8046EC
:1020600006E000BFFFF7CEFEA0EB080002282BD849
:10207000D9F80000C005F5D5D5F8900010F44070EF
:1020800014D0216D814211D0D5F89000D5F8901070
:1020900020F4407041F48031C5F89010D5F89010CC
:1020A00021F48031C5F89010C5F89000C00711D018
:1020B000FFF7A8FE804641F2883907E0FFF7A2FE4D
:1020C000A0EB0801494501D903260BE0D5F89000A3
:1020D0008007F3D5D5F89000216D20F440700843B7
:1020E000C5F890001FB1A86D20F08050A865207839
:1020F000C00707D0D5F88800616820F003000843C6
:10210000C5F888002078800707D5D5F88800A16831
:1021100020F00C000843C5F888002078400707D558
:10212000D5F88800E16820F030000843C5F8880041
:102130002078000707D5D5F88800216920F0C00075
:102140000843C5F888002078C00607D5D5F8880070
:10215000616920F440700843C5F888002078800643
:1021600007D5D5F88800A16920F440600843C5F878
:1021700088002078400607D5D5F88800E16920F46A
:1021800040500843C5F888002078000607D5D5F8E8
:102190008800216A20F440400843C5F88800208860
:1021A000C00507D5D5F88800616A20F4403008439F
:1021B000C5F888002068800307D5D5F89C00A16A7F
:1021C00020F003000843C5F89C002088800507D54F
:1021D000D5F88800E16A20F440200843C5F888005B
:1021E000208840050FD5D5F88800216B20F44010D9
:1021F0000843C5F88800206BB0F5801F03D1E8685C
:1022000040F48010E860208800050FD5D5F88800DC
:10221000616B20F440000843C5F88800606BB0F59E
:10222000800F03D1E86840F48010E8602088C00483
:102230000FD5D5F88800A16B20F040700843C5F891
:102240008800A06BB0F1807F03D1E86840F4801073
:10225000E86020884FF0006180040ED5D5F8880032
:10226000E26B20F040601043C5F88800E06B8842C4
:1022700003D1E86840F48010E860208840040ED55F
:10228000D5F88800226C20F040601043C5F8880023
:10229000206C884203D1E86840F48010E860208810
:1022A00000040FD5D5F88800616C20F04050084339
:1022B000C5F88800606CB0F1805F03D1E86840F435
:1022C0008030E8602068C0030FD5D5F88800A16C85
:1022D00020F040400843C5F88800A06CB0F1804F62
:1022E00003D1E86840F48030E860206840030FD5EF
:1022F000D5F89C00E16C20F440100843C5F89C0020
:10230000E06CB0F5001F03D1E86840F48010E8608D
:102310003046BDE8F8830000001002400070004025
:102320002DE9F0470E4605004FF0000725D0DFF8F5
:10233000AC81D8F8000000F00F00B0420CD2D8F801
:10234000001021F00F013143C8F80010D8F8000048
:1023500000F00F00B04210D12968614CC80741F26B
:10236000883A5AD06868DFF87C91032808D00228A0
:1023700020682DD0400500282CDB0120BDE8F08727
:1023800020688001F9D5E06800F00302E068C0F33E
:102390000310401C032A19D0534A00BFB2FBF0F0CF
:1023A000E268C2F306225043E268C2F34162521C63
:1023B0005200B0FBF2F0484517D9A06810F0F00FBA
:1023C0000CD0880711D5A86840B10EE0474AE5E770
:1023D0008003D0E700F0B6F8484506D9A06820F0A1
:1023E000F00040F08000A0608027A068696820F0BD
:1023F00003000843A060FFF705FD814606E000BF2B
:10240000FFF700FDA0EB090151453AD8A0686968C3
:1024100000F00C00B0EB810FF2D12868810714D5D1
:10242000400703D5A06840F4E060A060287800076A
:1024300005D5A06820F4605040F4E060A060A0687A
:10244000A96820F0F000084304E0802F03D1A068C1
:1024500020F0F000A060D8F80010404601F00F0115
:10246000B14216D9016821F00F0131430160FFF735
:10247000C9FC074607E000BFFFF7C4FCC11B51457C
:1024800001D903207AE7D8F8000000F00F00B0422D
:10249000F2D12878400705D5A068E96820F4E0600B
:1024A0000843A0602878000706D5A068296920F4B1
:1024B000605040EAC100A06000F044F8A1680C4AF6
:1024C000C1F30311515C01F01F01C84009490860C4
:1024D00009480068BDE8F047FFF7B2BC00200240A1
:1024E0000010024000B4C4040024F40000366E0161
:1024F000F03D00080C0000200000002005480649BF
:1025000000688968054AC1F30221515C01F01F018E
:10251000C84070470C00002000100240003E000838
:102520000548064900688968054AC1F3C221515C23
:1025300001F01F01C84070470C000020001002404D
:10254000003E0008184910B58868C0F3810217489A
:10255000012A0BD08A68164BC2F38102022A06D0E8
:102560008A68C2F38102032A03D0002010BD1846F6
:1025700010BDCA6802F00304CA68C2F30312521CF9
:10258000032C02D0B0FBF2F001E0B3FBF2F0CA681A
:10259000C968C2F306225043C1F34161491C490096
:1025A000B0FBF1F010BD0000001002400024F40068
:1025B00000366E012DE9F84304007AD02078FA4DF8
:1025C000C00747D0A868E96800F00C0001F00301DB
:1025D0000C2802D0082817D001E0032914D0606825
:1025E000B0F5803F17D0B0F5A02F286817D020F4A1
:1025F00080302860286820F4802028606068E0B17E
:10260000FFF700FC064614E02868800322D56068C6
:102610000028D2D01EE0286840F48030EDE740F476
:1026200080202860F7E700BFFFF7ECFB801B6428E1
:1026300070D828688003F7D50CE0FFF7E3FB064667
:1026400005E000BFFFF7DEFB801B6428F0D8286898
:102650008003F7D4207880074CD5A868E96800F09B
:102660000C0001F003010C2802D004280DD001E079
:1026700002290AD0E068002828682BD040F4807036
:102680002860FFF7BFFB064619E02868400502D521
:10269000E068002891D06868217C20F0FE4040EA84
:1026A00001606860C1480068FFF7CAFB002800D1DC
:1026B00020E076E1FFF7A6FB801B0228B8D8286847
:1026C0004005F7D56868217C20F0FE4040EA0160B3
:1026D00068600FE020F480702860FFF793FB0646E7
:1026E00005E000BFFFF78EFB801B0228A0D82868FA
:1026F0004005F7D42078000729D560690028D5F86F
:10270000940013D040F00100C5F89400FFF77AFB65
:10271000064606E090E000BFFFF774FB801B02282E
:1027200086D8D5F894008007F6D510E020F0010097
:10273000C5F89400FFF766FB064604E0FFF762FB6E
:10274000801B022878D8D5F894008007F6D420782A
:10275000400761D5A86D0026C00008D4A86D40F0E0
:102760008050A865A86D012600F080500090904828
:102770000168C90511D40168804641F48071016087
:10278000FFF740FB074604E0FFF73CFBC01B0228B5
:1027900052D8D8F80000C005F6D5A068012815D099
:1027A0000528D5F8900016D020F00100C5F890005B
:1027B000D5F8900020F00400C5F89000A06841F220
:1027C0008838B8B1FFF71EFB07460EE0D5F8900039
:1027D00040F00100F0E740F00400C5F89000F5E794
:1027E000FFF710FBC11B414526D8D5F890008007A4
:1027F000F6D50CE0FFF706FB074604E0FFF702FB07
:10280000C11B414518D8D5F890008007F6D41EB1F9
:10281000A86D20F08050A8652078800629D5A06991
:102820000028D5F8980013D040F00100C5F89800B2
:10283000FFF7E8FA064606E077E000BFFFF7E2FAA6
:10284000801B022877D8D5F898008007F6D510E0CD
:1028500020F00100C5F89800FFF7D4FA064604E01E
:10286000FFF7D0FA801B022865D8D5F898008007BA
:10287000F6D4E069F0B3A968C1F38101032961D0FE
:102880000228286820F0807028600BD0E86820F0CB
:102890000300E860E86847490840E860FFF7B2FADB
:1028A00004464BE0FFF7AEFA064604E0FFF7AAFA4B
:1028B000801B02283FD828688001F7D4F4E908017A
:1028C0006FF00F0202EB01110843218A52044908FC
:1028D00002EB4151A26841EA02210843217D4FF0F9
:1028E0007E42490802EB41610843217B40EAC16016
:1028F000E96800E062E0304A11400843E860286877
:1029000040F080702860E86840F08070E860FFF771
:1029100079FA044605E000BFFFF774FA001B0228AD
:1029200009D828688001F7D548E004E0FFF76AFA83
:10293000001B022802D90320BDE8F8832868800123
:10294000F4D43BE00128F7D0E868226A00F00301E4
:10295000914226D1616A00F0F002090110399142DA
:102960001FD1A26A00F4FE41B1EB022F19D194F8F5
:102970002C2000F07841B1EBC26F12D1218E00F40F
:10298000C00249084905A1F50011914209D194F806
:10299000341000F0C06049084906A1F1007181427D
:1029A0000CD00120C8E70000001002400000002009
:1029B00000700040FFFFEEFE0C809F010020BBE78F
:1029C0004FF0E0210428086903D020F004000861DA
:1029D000704740F00400FAE710B5401EB0F1807F68
:1029E00001D3012010BD4FF0E02460610F2160177A
:1029F00001F041F80020A06107202061002010BDF7
:102A000090F88010012918D0012180F8801024212D
:102A1000C0F8841050F8641B0A680B6823F00103A7
:102A20000B6022F000510022026050F8643C1960F3
:102A300020210162027710467047022070477047DC
:102A4000704770B5044690F8800001281DD0012021
:102A500084F880002420C4F8840020680568026897
:102A600022F0010202602068826822F060620A435C
:102A70008260204600F036FD206805602020C4F802
:102A80008400002084F8800070BD022070BD70B505
:102A9000044690F8800001281DD0012084F88000B1
:102AA0002420C4F8840020680568026822F001022E
:102AB00002602068826822F060420A4382602046F9
:102AC00000F010FD206805602020C4F8840000207C
:102AD00084F8800070BD022070BD70477047704759
:102AE0002DE9F04103680446D86919689A6840F6F0
:102AF0000F0528424FF0000509D186067ED501F06A
:102B0000200602F080573E4378D0216F27E1A94E7E
:102B1000A94F16400F40374370D0C70709D0CF05E3
:102B200007D501271F62D4F88C3043F00103C4F8A5
:102B30008C3083070AD5D30708D0276802233B626D
:102B4000D4F88C3043F00403C4F88C3043070AD522
:102B5000D30708D0276804233B62D4F88C3043F0B5
:102B60000203C4F88C3003070CD501F02003334373
:102B700008D0266808233362D4F88C3043F0080369
:102B8000C4F88C3003050BD54B0109D526684FF4EA
:102B900000633362D4F88C3043F02003C4F88C30E7
:102BA000D4F88C30002B3AD0800609D501F02000F3
:102BB00002F08051084303D0216F09B120468847B5
:102BC000D4F88C0021688968490602D410F0280FD7
:102BD00027D0204600F046FD2068806840061BD5BF
:102BE0002068083050E8001F21F0400140E8001242
:102BF000002AF5D1E06F78B1704900E017E08163F9
:102C0000E06FFEF783FF002809D0E06F816B00E0E2
:102C10002046BDE8F04108472046FFF760FFBDE8C9
:102C2000F0812046FFF75BFFC4F88C50F7E7E76EB2
:102C30002026012F7ED1C7067CD5CF067AD510205D
:102C4000186220688068400642D5E16F08684068D5
:102C50000004000CE3D0B4F85C208242DFD9A4F871
:102C60005E000868006880062BD4206850E8001FCA
:102C700021F4807140E80012002AF6D12068083063
:102C800050E8001F21F0010140E80012002AF5D1B0
:102C90002068083050E8001F21F0400140E8001291
:102CA000002AF5D1C4F88860E566216851E8000F74
:102CB00020F0100041E80002002AF6D1E06FFEF794
:102CC000F0FEB4F85C00B4F85E10401A81B22CE05B
:102CD000B4F85C00B4F85E10401A81B2B4F85E003B
:102CE00000289CD000299AD0226852E8000F20F4D6
:102CF000907042E80003002BF6D12E4BDB43206896
:102D0000083050E8002F1A4040E80027002FF6D185
:102D1000C4F88860E5662567226852E8000F20F055
:102D2000100042E80003002BF6D12046FFF787FE93
:102D300075E7FFE7C70209D5570207D54FF48010A2
:102D400018622046BDE8F041FFF7C8BE03060AD569
:102D500001F0800302F40002134304D0616F0029E4
:102D60007FF456AF5BE7420611D54A060FD52046E1
:102D7000016851E8002F22F0400241E80023002BB7
:102D8000F6D1C0F88460456700F096F847E7020284
:102D900006D54A0004D52046BDE8F041FFF79DBEA8
:102DA000C001C5D50029C3DA2046BDE8F041FFF7D0
:102DB00047BE000001000010200100045136000849
:102DC00010B5040003D0D4F8840010B107E001204E
:102DD00010BD002084F88000204600F027F8242051
:102DE000C4F884002068016821F0010101602046D8
:102DF00000F062FC0128EBD0A06A10B1204600F080
:102E000093FB2068416821F490414160206881680B
:102E100021F02A0181602068016841F00101016010
:102E20002046BDE8104000F0E3BB000010B59CB0A8
:102E30000446142115A8FDF731FC54216846FDF71E
:102E40002DFC1A49206888422ED101200024CDE9AA
:102E500000046846FFF7E4F808B1FEF720FE1448C6
:102E6000016E41F480410166016E01F480411A91C6
:102E7000C16C41F00401C164C06C15A900F00400EC
:102E80001A90302015900220CDE916040720CDE9D4
:102E900018400848FEF788FE002211462520FFF75B
:102EA00027F82520FFF717F81CB010BD00380140A7
:102EB00000100240000800487047FEE770B50D465C
:102EC000044600F05FF8782000F020F800F0B0F839
:102ED000204600F01BF800F0ABF8284600F016F88A
:102EE00000F0A6F8BDE8704000F076B810B5064CCA
:102EF000012211022046FEF780FF20460122BDE894
:102F000010405102FEF779BF000400482DE9F0415E
:102F10001B4C06462046216821F44021216021688F
:102F200041F4802121604FF4007700223946FEF7FA
:102F300064FF00254FF48078300601D5012200E0BF
:102F4000002241462046FEF758FF7006060E02207A
:102F500000F0B8FD012239462046FEF74EFF022060
:102F600000F0B0FD002239462046FEF746FF022061
:102F700000F0A8FD6D1CEDB2082DDDD3BDE8F08199
:102F80000004004870B5134C206820F440202060F5
:102F9000206840F480202060012215022946204646
:102FA000FEF72BFF0122560231462046FEF725FF91
:102FB000042000F087FD002229462046FEF71DFF71
:102FC000042000F07FFD31462046BDE8704000221D
:102FD000FEF713BF0004004870B5144C206820F4BD
:102FE00040202060206840F4802020604FF400756D
:102FF000002229462046FEF700FF6E1000223146CF
:103000002046FEF7FAFE042000F05CFD012229466E
:103010002046FEF7F2FE012231462046FEF7EDFE85
:10302000BDE87040042000F04DBD000000040048E1
:103030002DE9F041184C0025206820F44020206044
:10304000206820600122160231462046FEF7D5FE98
:10305000012000F037FD0122570239462046FEF7D5
:10306000CCFE012000F02EFD08E06D1CEDB2FA2D23
:1030700004D9FFF7B1FF0120BDE8F08131462046B9
:10308000FEF7B6FE0028F0D1002239462046FEF7B2
:10309000B4FE0020F0E70000000400482DE9F041F4
:1030A00086B014216846FDF7F9FA3C48C16C41F03E
:1030B0000401C164C16C01F004010591C16C41F0CF
:1030C0002001C164C16C01F020010591C16C41F087
:1030D0000201C164C16C01F002010591C16C41F0B3
:1030E0000101C164C06CDFF8B88000F001000590F8
:1030F00000224FF4E7614046FEF77FFE4FF48076F2
:103100004FF09047002231463846FEF776FE7001B8
:1031100000904FF488100024CDE90104694621484D
:10312000FEF742FD4FF4876000900125CDE9015480
:10313000694640460394FEF737FD0096CDE90154F9
:10314000694638460394FEF72FFD6802CDE9000476
:10315000694638460294FEF727FDA80200904FF416
:103160000410CDE9010469463846FEF71DFD4FF411
:10317000407000901120CDE90105032003906946BD
:103180004046FEF711FD002211462820FEF7B0FE52
:103190002820FEF7A0FE06B0BDE8F0810010024036
:1031A0000004004800080048184810B5164901609E
:1031B0004FF4E1314160002181600C22C160C0E91F
:1031C00004128161C161016241628162FFF7F8FD11
:1031D00008B1FEF764FC00210C48FFF758FC08B169
:1031E000FEF75DFC00210948FFF72BFC08B1FEF754
:1031F00056FC0648FFF704FC002803D0BDE8104049
:10320000FEF74DBC10BD0000003801404802002010
:10321000FEE70000094881680968C96989060CD57C
:1032200007490A68074B41685A54491C41606429A0
:1032300003D1002141600121017070473802002054
:1032400024380140D80200200349886000680168E2
:1032500041F020010160704738020020FEE70020A5
:10326000AFF3008070B506465FF0000404F1B000D3
:10327000C0B200F0E0FB002000F0DDFB102000F009
:10328000DAFB0025304600F0DAFB6D1CEDB2802D34
:10329000F8D3641CE4B2082CE8D370BD10B5FFF776
:1032A00025FE642000F008FCAE2000F0C4FB2020C6
:1032B00000F0C1FB102000F0BEFBB02000F0BBFB13
:1032C000C82000F0B8FB002000F0B5FB102000F093
:1032D000B2FB402000F0AFFB812000F0ACFB204CA3
:1032E000607800F0A8FBA12000F0A5FB207808B1D1
:1032F000A62000E0A72000F09EFBA82000F09BFB8A
:103300003F2000F098FBA42000F095FBD32000F0B4
:1033100092FB002000F08FFBD52000F08CFBF0200A
:1033200000F089FBD92000F086FB222000F083FB0F
:10333000DA2000F080FB122000F07DFBDB2000F0A3
:103340007AFB202000F077FB8D2000F074FB142026
:1033500000F071FBBDE81040AF2000F06CBB000036
:103360001200002010B50446B031C8B200F063FB73
:10337000102040EA141000F05EFB04F00F00BDE8DE
:10338000104040F0010000F056BB00002DE9F0476E
:10339000002591468A460446012B22D0DFF8BC80E6
:1033A000022B24D155E02038C7B27E2C04D90AF173
:1033B0000100002400F0FF0A51462046FFF7D2FF2B
:1033C00007EB4700002608EB4007B85D00F037FB2D
:1033D000761CF6B2062EF8D3A41D6D1CE4B2EDB235
:1033E00001E0DFF87C8019F805000028DBD1BDE89A
:1033F000F0872038C7B2782C04D90AF101000024E4
:1034000000F0FF0A51462046FFF7ACFF5FF00006D0
:1034100006EB071118F8010000F011FB761CF6B25C
:10342000082EF5D30AF10100C1B22046FFF79AFF3A
:103430005FF0000606EB071101EB0800007A00F0D0
:10344000FEFA761CF6B2082EF4D308346D1CE4B2F2
:10345000EDB219F805000028CBD1C8E73E400008BE
:10346000103E000870477047FEF7D2BC10B594B00C
:1034700038216846FDF712F914210EA8FDF70EF960
:103480000020FEF767FD01200090000403240621C0
:103490000190CDE9084102205521CDE90A1007909D
:1034A0000C900D906846FFF785F808B172B6FEE7FC
:1034B0000F20CDE90E0400201090119012900421ED
:1034C0000EA8FEF72DFF002801D072B6FEE714B05B
:1034D00010BD00000248016841F4700101607047AE
:1034E00088ED00E030B5416EB9B10268916892682C
:1034F000C1F342610B4B520F9C5CE50003F10804E1
:10350000A25CB5FBF2F2A0F86A205A5C615CD200C2
:10351000B2FBF1F1A0F8681030BD0121A0F86A10EB
:10352000F8E70000E03D000890F82810C90706D031
:1035300001684A68C36A22F400321A434A6090F86C
:103540002810890706D501684A68036B22F4803287
:103550001A434A6090F82810490706D501684A685E
:10356000436B22F480221A434A6090F8281009071E
:1035700006D501684A68836B22F400421A434A6008
:1035800090F82810C90606D501688A68C36B22F432
:1035900080521A438A6090F82810890606D501687F
:1035A0008A68036C22F400521A438A6090F828104B
:1035B000490611D501684A68436C22F480121A4307
:1035C0004A60416CB1F5801F06D101684A68836C7E
:1035D00022F4C0021A434A6090F82810090606D562
:1035E00001684A68C06C22F4002202434A607047B6
:1035F000F8B500260446C0F88C60FEF703FC0546CB
:10360000206800686FF07E47000708D52B4600222F
:103610004FF400112046009700F09AF960B9206835
:10362000006840070AD52B4600224FF4800120464F
:10363000009700F08DF908B10320F8BD2020C4F8F0
:103640008400C4F8880044F86C6F00202675F8BD2B
:1036500010B5806A0021A0F85E10A0F85610FFF7A0
:103660003EFA10BD10B5026852E8001F21F49071B7
:1036700042E80013002BF6D10E4B0268083252E8E4
:10368000001F194042E80014002CF6D1C16E012938
:1036900008D1016851E8002F22F0100241E8002310
:1036A000002BF6D12021C0F888100021C1660167E7
:1036B00010BD0000FEFFFFEF2DE9F0410446016858
:1036C00080682269E3691043626900251A43104348
:1036D000DFF84CC20A68934B1A4002430A60206824
:1036E0004168E26821F44051114341602168A069BA
:1036F000614501D0226A10438A688B4B1A4002430D
:103700008A602068C16A626A21F00F011143C162B8
:103710008649236886488B420DD1D0F8880010F086
:10372000030006D0012867D0022854D0032851D1C5
:1037300064E001204FE07F498B420BD1D0F8880034
:1037400010F00C0047D0042845D0082852D00C288F
:1037500040D153E078498B420BD1D0F8880010F06B
:10376000300038D0102847D0202843D0302831D11D
:1037700044E072498B420BD1D0F8880010F0C000B1
:1037800029D0402838D0802834D0C02822D135E034
:103790006B498B420ED1D0F8880010F440701AD0DB
:1037A000B0F5807F28D0B0F5007F23D0B0F5407F02
:1037B00010D123E063450DD1D0F8880010F44060AB
:1037C00009D0B0F5806F17D0B0F5006F12D0B0F50A
:1037D000406F13D010205B4A5B4F00264FF400412E
:1037E000634539D160B102280DD004280DD00828D6
:1037F00031D10EE00220EEE70420ECE70820EAE7F2
:10380000FEF77CFE03E0114603E0FEF79BFE01009D
:103810007BD0606A37F810206768B1FBF2F007EBE5
:103820004703834269D8B0EB073F66D800230846B8
:103830001946FCF773FD090241EA1061020278089B
:10384000101871413A460023FCF768FD3F4AA0F585
:103850004071914257D950E0E3694FF6EF788B42BF
:103860002BD1092849D2DFE800F005080D4825488A
:1038700048480E00FEF742FE01E0FEF751FE01004F
:1038800001D142E01146606A37F81000B1FBF0F058
:103890004100606801EB5001B1FBF0F1A1F11000B3
:1038A00040452AD84FF6F07201EA0200C1F3420106
:1038B000084328E0FEF746FEE1E709281DD2DFE8CD
:1038C00000F005080D1C1E1C1C1C0E00FEF716FE49
:1038D00001E0FEF725FE010001D116E01146606A05
:1038E00037F81000B1FBF0F1606801EB5001B1FB5B
:1038F000F0F0A0F11001414504D9012505E0FEF7E3
:1039000021FEE8E780B22168C8600120A4F86A00BF
:1039100024F8680F2846A660E660BDE8F081000044
:1039200000800040F369FFCFFFF4FF110038014031
:10393000001002400044004000480040004C00409D
:10394000005000400024F400C83D0008FFFC0F00B8
:103950002DE9F0479A4617460E4604464FF00009F7
:103960004FF02008089D4AE0681C48D0FEF74AFA4C
:10397000A0EB0A00A8422AD84DB320680168490785
:103980003DD5C069C043000539D421684FF40060BB
:103990000862206850E8001F21F4D07140E800124E
:1039A000002AF6D12068083050E8001F21F00101FC
:1039B00040E80012002AF5D144F8848FC4F804804E
:1039C000C4F8088004F8049C0320BDE8F08721684F
:1039D00051E8000F20F4D07041E80002002AF6D12F
:1039E0002068083050E8001F21F0010140E8001273
:1039F000002AF5D144F8848FC4F80480E2E72068F7
:103A0000C06936EA000004D00020B842ACD00020E3
:103A1000DBE70120F9E7000010B50448FFF7FAFBE7
:103A2000BDE810400248FFF75BB8000000380140D5
:103A300048020020FEE701460020FFF73FBA01469A
:103A40004020FFF73BBA03B401984100009850EAC8
:103A5000C12018BF04204A0D18BF40F0010040F2F9
:103A6000FF72B2EB515F08BF40F00200012808BFAF
:103A7000052002B070470907090E002804DB00F199
:103A8000E02080F80014704700F00F0000F1E02003
:103A900080F8141D704730380A2801D20120704781
:103AA0000020704710B504460420FEF789FF014846
:103AB000048010BD100000204FF47A71484300F0DC
:103AC00001B8000070B54FF0E02400226569094993
:103AD000A36909884843A1699942FCD002D2A3EBAB
:103AE000010302E0A5EB010633441A440B4682426F
:103AF000F1D370BD10000020044989680968CA69C3
:103B00005206FCD5024AC1B211607047380200204B
:103B1000283801402DED028B90B0FEF781F9FFF7B8
:103B2000A5FCFFF7BBFAFFF73FFBAA20FFF7BAFFA0
:103B30002D48FFF789FBFFF7B1FBFFF790FB02234E
:103B40002AA203212820FFF721FCFDF729FEFDF71B
:103B5000ABFE044627A0FCF77DFC27A0FCF77AFC0F
:103B6000032C214601D028A000E02FA0FCF772FC16
:103B700035A0FCF76FFC00210846FDF777FD00201B
:103B8000FDF71AFFDFF8F880DFF8F8909FED3E8A26
:103B900008276D4608AE00242046FDF7A9FD45F82C
:103BA000240080FB08014A460023FCF72EFC00EEAF
:103BB000100A46F82400F8EEC00A80EE880A10EEDB
:103BC000100A00F089F841EC100B214653EC102B41
:103BD0002EA0FCF73FFC641CE4B2BC42DCD34FF4E3
:103BE0007A70FFF769FFD6E748020020535441522C
:103BF000540000000D0A0000B6C1C8A1D0BEC6AC7A
:103C000049440D0A000000004572726F722C204179
:103C10005344313235362043686970204944203D91
:103C200020307825580D0A004F6B2C204153443129
:103C30003235362043686970204944203D20307871
:103C400025580D0A000000000D0A504741D4F6D255
:103C5000E6203D20312C20CAFDBEDDCAE4B3F6CB00
:103C6000D9C2CA203D2031357370732C20B5A5B65A
:103C7000CB38C2B7C9A8C3E80D0A0D0A000000007E
:103C8000A0252600FFFF3F0000007A44434825643A
:103C9000203D20252E3266206D760D0A00000000A2
:103CA00010B500290AD00878002807D005487844C4
:103CB000FDF7DAF8002801D0002010BD0248784452
:103CC00010BD00006E0A0000660A00000808A0F59A
:103CD00000114FEA3101704743004FEAD30C4FEA1D
:103CE0003C0C43401FBF40070CF1605113F0FE4FE6
:103CF00070471CF0006F03D100200CF000417047AA
:103D00000CF0004343EA507010B540EACC0000F0DC
:103D10000EF800BF000000924FEA0001FFF7D6BF87
:103D20004FF000414FF00000A1F5002170470EF167
:103D3000020E2EF0030E5EF8044B244204D44FEA28
:103D40004102B2F17F4F11D84FEA4003B3F17F4FE8
:103D50000CD80ED14FEAD07CB2F17F4F0CEB4C0C5B
:103D60000CF1020C08BF4CEBD17C04E04FF0080CC6
:103D700001E04FEAD17C0CEB4C0324FA03F404F08D
:103D80000704B4F1040C06D20EEB840CBDE810401D
:103D90004CF0010C6047DFE80CF0070802024FF01E
:103DA0000040A0F5800010BD0846420018BFD2F1C7
:103DB000807288BF00F0004010BD4FF04070E1EE0F
:103DC000100A7047FCF7C4BD0100020004000600A1
:103DD00008000A000C0010002000400080000001D4
:103DE00001010103070100000804020408010101A8
:103DF000000000000000000001020304060708099B
:103E0000000000000102030403020106000504078C
:103E10000000000000000000002F0000000007006C
:103E2000070000147F147F1400242A7F2A120062E6
:103E30006408132300364955225000000503000092
:103E400000001C224100000041221C000014083E1A
:103E500008140008083E0808000000A060000008E0
:103E60000808080800006060000000201008040234
:103E7000003E5149453E0000427F400000426151F2
:103E80004946002141454B31001814127F1000278C
:103E900045454539003C4A4949300001710905034F
:103EA00000364949493600064949291E0000363680
:103EB00000000000563600000008142241000014E3
:103EC00014141414000041221408000201510906C0
:103ED00000324959513E007C1211127C007F494941
:103EE0004936003E41414122007F4141221C007F72
:103EF00049494941007F09090901003E4149497A80
:103F0000007F0808087F0000417F410000204041F9
:103F10003F01007F08142241007F40404040007F65
:103F2000020C027F007F0408107F003E4141413EA9
:103F3000007F09090906003E4151215E007F0919F1
:103F400029460046494949310001017F0101003FEE
:103F50004040403F001F2040201F003F4038403F6E
:103F600000631408146300070870080700615149D2
:103F7000454300007F41410000552A552A55000065
:103F800041417F00000402010204004040404040E3
:103F9000000001020400002054545478007F48447B
:103FA000443800384444442000384444487F0038B2
:103FB0005454541800087E0901020018A4A4A47CDB
:103FC000007F080404780000447D400000408084A5
:103FD0007D00007F102844000000417F4000007CED
:103FE00004180478007C08040478003844444438F9
:103FF00000FC242424180018242418FC007C080445
:10400000040800485454542000043F444020003C1D
:104010004040207C001C2040201C003C4030403CA4
:10402000004428102844001CA0A0A07C0044645434
:104030004C44141414141414FFFFFFFFFFFF00007E
:104040000000000000000000000000000000000070
:1040500000F80000000000000033300000000010F5
:104060000C06100C0600000000000000000040C01C
:104070007840C0784000043F04043F04040000700E
:1040800088FC08300000001820FF211E0000F00806
:10409000F000E018000000211C031E211E0000F0AB
:1040A0000888700000001E212324192721101016F3
:1040B0000E000000000000000000000000000000F2
:1040C00000E0180402000000000718204000000271
:1040D0000418E000000000402018070000004040E5
:1040E00080F0804040000202010F01020200000047
:1040F00000F0000000000101011F010101000000AB
:1041000000000000000080B070000000000000000F
:104110000000000000000001010101010101000098
:10412000000000000000003030000000000000002F
:10413000000080601804006018060100000000E024
:1041400010080810E000000F102020100F000010D1
:1041500010F8000000000020203F20200000007028
:104160000808088870000030282422213000003020
:104170000888884830000018202020110E00000018
:10418000C02010F8000000070424243F240000F899
:104190000888880808000019212020110E0000E07E
:1041A000108888180000000F112020110E00003820
:1041B0000808C83808000000003F00000000007038
:1041C000880808887000001C222121221C0000E0C1
:1041D00010080810E0000000312222110F0000003A
:1041E00000C0C000000000000030300000000000EF
:1041F000008000000000000080600000000000005F
:1042000080402010080000010204081020004040F7
:10421000404040404000040404040404040000083A
:1042200010204080000000201008040201000070EF
:1042300048080808F0000000003036010000C030D7
:10424000C828E810E0000718272423140B000000FA
:10425000C038E0000000203C23020227382008F884
:10426000888888700000203F202020110E00C03078
:10427000080808083800071820202010080008F84F
:1042800008080810E000203F202020100F0008F848
:104290008888E8081000203F20202320180008F814
:1042A0008888E8081000203F200003000000C0308C
:1042B00008080838000007182020221E020008F80D
:1042C00008000008F808203F210101213F200008D4
:1042D00008F8080800000020203F2020000000000F
:1042E0000808F8080800C08080807F00000008F8F7
:1042F00088C028180800203F20012638200008F830
:10430000080000000000203F20202020300008F896
:10431000F800F8F80800203F003F003F200008F8B0
:1043200030C00008F808203F200007183F00E010C8
:1043300008080810E0000F10202020100F0008F8D7
:1043400008080808F000203F210101010000E010EA
:1043500008080810E0000F18242438504F0008F80F
:10436000888888887000203F2000030C302000706F
:104370008808080838000038202121221C0018086D
:1043800008F8080818000000203F2000000008F886
:1043900008000008F808001F202020201F000878CF
:1043A000880000C83808000007380E010000F8082F
:1043B00000F80008F800033C0700073C0300081859
:1043C00068808068180820302C03032C30200838BF
:1043D000C800C83808000000203F20000000100876
:1043E0000808C838080020382621202018000000BE
:1043F00000FE020202000000007F40404000000C6E
:1044000030C000000000000000010638C0000002BB
:104410000202FE000000004040407F00000000005B
:10442000040202020400000000000000000000007E
:10443000000000000000808080808080808000027A
:104440000204000000000000000000000000000066
:104450008080808000000019242222223F2008F85A
:10446000008080000000003F112020110E0000009D
:10447000008080800000000E11202020110000002C
:1044800000808088F800000E112020103F200000DE
:10449000808080800000001F2222222213000080E2
:1044A00080F0888888180020203F2020000000002D
:1044B000808080808000006B94949493600008F862
:1044C000008080800000203F210000203F200080ED
:1044D0009898000000000020203F202000000000ED
:1044E00000809898000000C08080807F000008F85D
:1044F000000080808000203F24022D302000000832
:1045000008F8000000000020203F202000008080EC
:10451000808080808000203F20003F20003F8080FE
:10452000008080800000203F210000203F2000000C
:10453000808080800000001F202020201F008080BD
:1045400000808000000080FFA12020110E000000EC
:10455000008080808000000E112020A0FF808080DD
:1045600080008080800020203F212000010000008A
:10457000808080808000003324242424190000805F
:1045800080E0808000000000001F2020000080806C
:10459000000000808000001F202020103F2080802D
:1045A00080000080808000010E30080601008080BD
:1045B0000080008080800F300C030C300F000080E2
:1045C0008000808080000020312E0E31200080800D
:1045D00080000080808080818E701806010000803D
:1045E0008080808080000021302C2221300000005B
:1045F0000000807C020200000000003F40400000FC
:104600000000FF00000000000000FF0000000002AA
:10461000027C800000000040403F000000000006D7
:104620000101020204040000000000000000F0E0AC
:10463000D0C0B0A192827263534333201303303150
:1046400032333435363738394142434445464030B9
:10465000580030313233343536373839616263646B
:10466000656640307800000002400000000000A0B5
:104670000000000005400000000000C8000000002D
:104680000C4000000000409C0000000019400000A9
:104690000020BCBE0000000034400000BFC91B8EDB
:1046A00000000004B5400000504BCFD06607E2CFB9
:1046B000010000006C4100003E8251AADFEEA734E9
:1046C00001000000D9420000DCB5A0E23A301F979B
:1046D000FFFFFFFFB4450000FD25A0C8E9A3C14FBF
:1046E000FFFFFFFFFF3F0000000000800000000010
:1046F000FF3F000000000080000000003847000875
:10470000000000204802000014020008F4480008DD
:104710004802002080070000700200081C00000012
:1047200043000000F8FFFFFF0C0000000E00000037
:104730000F0000002E000000321082012B24F40E26
:1047400012FF1C108C84012B85F6061484940C1027
:104750001020201008040201FF010204081020208C
:10476000160809CEB8082C027A4A01137A02191BDE
:104770001112031EFF4949497F0419401560020CBC
:10478000C0100AF8888888FF8888A81810100404C8
:104790007C0380601F80432C10284681803D8082EE
:1047A00082FE031A8059138660258040300F22FF55
:1047B0001780844221100C1010407C407F484840F4
:1047C000F2121AD61212F2022010908E404F201EC2
:1047D000804F20180710204F80200E14A44424344A
:1047E000AD6624940444A414180C080908080909A7
:1047F00009FD09090B0922084EF808FF08F8A12451
:104800007A0202120F1BFF080439A01967111AF06F
:104810006D180AF080904C57A4544C8450180F1F08
:10482000100F081F10101515FF1515101088200DFA
:1048300060F80704E4A4A4BFA4A4E4041A019D3C06
:1048400040407FEF847F40404BFF0801290B6A41C5
:1048500001295F2010100C442414040506040414DC
:104860002444140C2B40401B2A7F05493F1BFE406B
:1048700001112EFF804020103F111C7F2020782A3C
:104880003F1623407828090202C2020202FE82017A
:1048900019BF19151977390439381602E222223E58
:1048A0002808088848390E08C880154382423E20EF
:1048B00009217129252321287039961DF8898E88B0
:1048C0000139A019681B1807485480403F8B0484A5
:1048D0000119E0CA200111300E2010E824272424F9
:1048E000E424342C20E01D80601F090107167F0995
:0448F0000949897F6A
:04000005080001D915
:00000001FF
